{
  "contractName": "ProductContract",
  "abi": [
    {
      "inputs": [
        {
          "internalType": "bytes32",
          "name": "",
          "type": "bytes32"
        }
      ],
      "name": "products",
      "outputs": [
        {
          "internalType": "bytes32",
          "name": "productSN",
          "type": "bytes32"
        },
        {
          "internalType": "bytes32",
          "name": "currentConsumerCode",
          "type": "bytes32"
        },
        {
          "internalType": "address",
          "name": "owner",
          "type": "address"
        },
        {
          "internalType": "bool",
          "name": "isSold",
          "type": "bool"
        }
      ],
      "stateMutability": "view",
      "type": "function"
    },
    {
      "inputs": [
        {
          "internalType": "bytes32",
          "name": "_productSN",
          "type": "bytes32"
        },
        {
          "internalType": "bytes32",
          "name": "_newConsumerCode",
          "type": "bytes32"
        }
      ],
      "name": "transferOwnership",
      "outputs": [],
      "stateMutability": "nonpayable",
      "type": "function"
    }
  ],
  "bytecode": "0x608060405234801561001057600080fd5b506105e5806100206000396000f3fe608060405234801561001057600080fd5b50600436106100365760003560e01c80636d8c95321461003b5780637905439114610057575b600080fd5b610055600480360381019061005091906102f1565b61008a565b005b610071600480360381019061006c9190610331565b610259565b60405161008194939291906103c9565b60405180910390f35b60008083815260200190815260200160002060020160149054906101000a900460ff166100ec576040517f08c379a00000000000000000000000000000000000000000000000000000000081526004016100e39061046b565b60405180910390fd5b80600080848152602001908152602001600020600101541415610144576040517f08c379a000000000000000000000000000000000000000000000000000000000815260040161013b906104fd565b60405180910390fd5b3373ffffffffffffffffffffffffffffffffffffffff1660008084815260200190815260200160002060020160009054906101000a900473ffffffffffffffffffffffffffffffffffffffff1673ffffffffffffffffffffffffffffffffffffffff16146101e7576040517f08c379a00000000000000000000000000000000000000000000000000000000081526004016101de9061058f565b60405180910390fd5b80600080848152602001908152602001600020600101819055503360008084815260200190815260200160002060020160006101000a81548173ffffffffffffffffffffffffffffffffffffffff021916908373ffffffffffffffffffffffffffffffffffffffff1602179055505050565b60006020528060005260406000206000915090508060000154908060010154908060020160009054906101000a900473ffffffffffffffffffffffffffffffffffffffff16908060020160149054906101000a900460ff16905084565b600080fd5b6000819050919050565b6102ce816102bb565b81146102d957600080fd5b50565b6000813590506102eb816102c5565b92915050565b60008060408385031215610308576103076102b6565b5b6000610316858286016102dc565b9250506020610327858286016102dc565b9150509250929050565b600060208284031215610347576103466102b6565b5b6000610355848285016102dc565b91505092915050565b610367816102bb565b82525050565b600073ffffffffffffffffffffffffffffffffffffffff82169050919050565b60006103988261036d565b9050919050565b6103a88161038d565b82525050565b60008115159050919050565b6103c3816103ae565b82525050565b60006080820190506103de600083018761035e565b6103eb602083018661035e565b6103f8604083018561039f565b61040560608301846103ba565b95945050505050565b600082825260208201905092915050565b7f50726f64756374206e6f7420736f6c6420796574000000000000000000000000600082015250565b600061045560148361040e565b91506104608261041f565b602082019050919050565b6000602082019050818103600083015261048481610448565b9050919050565b7f4e657720636f6e73756d657220636f6465206d7573742062652064696666657260008201527f656e740000000000000000000000000000000000000000000000000000000000602082015250565b60006104e760238361040e565b91506104f28261048b565b604082019050919050565b60006020820190508181036000830152610516816104da565b9050919050565b7f4f6e6c79207468652063757272656e74206f776e65722063616e207472616e7360008201527f666572206f776e65727368697000000000000000000000000000000000000000602082015250565b6000610579602d8361040e565b91506105848261051d565b604082019050919050565b600060208201905081810360008301526105a88161056c565b905091905056fea264697066735822122041509fa904c54fbb190c76a2101f7c9f148f9f365044a7cce9e8cd6124925ded64736f6c634300080c0033",
  "immutableReferences": {},
  "source": "pragma solidity ^0.8.0;\r\n\r\ncontract ProductContract {\r\n    struct Product {\r\n        bytes32 productSN;\r\n        bytes32 currentConsumerCode;\r\n        address owner;\r\n        bool isSold;\r\n    }\r\n\r\n    mapping(bytes32 => Product) public products;\r\n\r\n    function transferOwnership(bytes32 _productSN, bytes32 _newConsumerCode) public {\r\n        require(products[_productSN].isSold, \"Product not sold yet\");\r\n        require(products[_productSN].currentConsumerCode != _newConsumerCode, \"New consumer code must be different\");\r\n        require(products[_productSN].owner == msg.sender, \"Only the current owner can transfer ownership\");\r\n\r\n        products[_productSN].currentConsumerCode = _newConsumerCode;\r\n        products[_productSN].owner = msg.sender;\r\n    }\r\n\r\n    // Other functions like product registration, selling, etc., can be implemented here\r\n}\r\n",
  "sourcePath": "D:\\Final_SemProject\\Project Folder\\Enhancing Trust with Blockchain for Genuine Products\\contracts\\reSale.sol",
  "compiler": {
    "name": "solc",
    "version": "0.8.12+commit.f00d7308.Emscripten.clang"
  },
  "schemaVersion": "3.4.16",
  "updatedAt": "2024-06-02T15:23:19.195Z",
  "devdoc": {
    "kind": "dev",
    "methods": {},
    "version": 1
  },
  "userdoc": {
    "kind": "user",
    "methods": {},
    "version": 1
  }
}