{
  "contractName": "Product",
  "abi": [
    {
      "inputs": [
        {
          "internalType": "uint256",
          "name": "",
          "type": "uint256"
        }
      ],
      "name": "productItems",
      "outputs": [
        {
          "internalType": "uint256",
          "name": "productId",
          "type": "uint256"
        },
        {
          "internalType": "bytes32",
          "name": "productSN",
          "type": "bytes32"
        },
        {
          "internalType": "bytes32",
          "name": "productName",
          "type": "bytes32"
        },
        {
          "internalType": "bytes32",
          "name": "productBrand",
          "type": "bytes32"
        },
        {
          "internalType": "uint256",
          "name": "productPrice",
          "type": "uint256"
        },
        {
          "internalType": "bytes32",
          "name": "productStatus",
          "type": "bytes32"
        },
        {
          "internalType": "uint256",
          "name": "ownershipCount",
          "type": "uint256"
        },
        {
          "internalType": "bytes32",
          "name": "currentConsumerCode",
          "type": "bytes32"
        }
      ],
      "stateMutability": "view",
      "type": "function"
    },
    {
      "inputs": [
        {
          "internalType": "bytes32",
          "name": "",
          "type": "bytes32"
        }
      ],
      "name": "productMap",
      "outputs": [
        {
          "internalType": "uint256",
          "name": "",
          "type": "uint256"
        }
      ],
      "stateMutability": "view",
      "type": "function"
    },
    {
      "inputs": [
        {
          "internalType": "bytes32",
          "name": "",
          "type": "bytes32"
        }
      ],
      "name": "productsForSale",
      "outputs": [
        {
          "internalType": "bytes32",
          "name": "",
          "type": "bytes32"
        }
      ],
      "stateMutability": "view",
      "type": "function"
    },
    {
      "inputs": [
        {
          "internalType": "bytes32",
          "name": "",
          "type": "bytes32"
        }
      ],
      "name": "productsManufactured",
      "outputs": [
        {
          "internalType": "bytes32",
          "name": "",
          "type": "bytes32"
        }
      ],
      "stateMutability": "view",
      "type": "function"
    },
    {
      "inputs": [
        {
          "internalType": "bytes32",
          "name": "",
          "type": "bytes32"
        }
      ],
      "name": "productsSold",
      "outputs": [
        {
          "internalType": "bytes32",
          "name": "",
          "type": "bytes32"
        }
      ],
      "stateMutability": "view",
      "type": "function"
    },
    {
      "inputs": [
        {
          "internalType": "bytes32",
          "name": "",
          "type": "bytes32"
        },
        {
          "internalType": "uint256",
          "name": "",
          "type": "uint256"
        }
      ],
      "name": "productsWithConsumer",
      "outputs": [
        {
          "internalType": "bytes32",
          "name": "",
          "type": "bytes32"
        }
      ],
      "stateMutability": "view",
      "type": "function"
    },
    {
      "inputs": [
        {
          "internalType": "bytes32",
          "name": "",
          "type": "bytes32"
        },
        {
          "internalType": "uint256",
          "name": "",
          "type": "uint256"
        }
      ],
      "name": "productsWithSeller",
      "outputs": [
        {
          "internalType": "bytes32",
          "name": "",
          "type": "bytes32"
        }
      ],
      "stateMutability": "view",
      "type": "function"
    },
    {
      "inputs": [
        {
          "internalType": "uint256",
          "name": "",
          "type": "uint256"
        }
      ],
      "name": "sellers",
      "outputs": [
        {
          "internalType": "uint256",
          "name": "sellerId",
          "type": "uint256"
        },
        {
          "internalType": "bytes32",
          "name": "sellerName",
          "type": "bytes32"
        },
        {
          "internalType": "bytes32",
          "name": "sellerBrand",
          "type": "bytes32"
        },
        {
          "internalType": "bytes32",
          "name": "sellerCode",
          "type": "bytes32"
        },
        {
          "internalType": "uint256",
          "name": "sellerNum",
          "type": "uint256"
        },
        {
          "internalType": "bytes32",
          "name": "sellerManager",
          "type": "bytes32"
        },
        {
          "internalType": "bytes32",
          "name": "sellerAddress",
          "type": "bytes32"
        }
      ],
      "stateMutability": "view",
      "type": "function"
    },
    {
      "inputs": [
        {
          "internalType": "bytes32",
          "name": "",
          "type": "bytes32"
        },
        {
          "internalType": "uint256",
          "name": "",
          "type": "uint256"
        }
      ],
      "name": "sellersWithManufacturer",
      "outputs": [
        {
          "internalType": "bytes32",
          "name": "",
          "type": "bytes32"
        }
      ],
      "stateMutability": "view",
      "type": "function"
    },
    {
      "inputs": [
        {
          "internalType": "bytes32",
          "name": "_manufacturerId",
          "type": "bytes32"
        },
        {
          "internalType": "bytes32",
          "name": "_sellerName",
          "type": "bytes32"
        },
        {
          "internalType": "bytes32",
          "name": "_sellerBrand",
          "type": "bytes32"
        },
        {
          "internalType": "bytes32",
          "name": "_sellerCode",
          "type": "bytes32"
        },
        {
          "internalType": "uint256",
          "name": "_sellerNum",
          "type": "uint256"
        },
        {
          "internalType": "bytes32",
          "name": "_sellerManager",
          "type": "bytes32"
        },
        {
          "internalType": "bytes32",
          "name": "_sellerAddress",
          "type": "bytes32"
        }
      ],
      "name": "addSeller",
      "outputs": [],
      "stateMutability": "nonpayable",
      "type": "function"
    },
    {
      "inputs": [],
      "name": "viewSellers",
      "outputs": [
        {
          "internalType": "uint256[]",
          "name": "",
          "type": "uint256[]"
        },
        {
          "internalType": "bytes32[]",
          "name": "",
          "type": "bytes32[]"
        },
        {
          "internalType": "bytes32[]",
          "name": "",
          "type": "bytes32[]"
        },
        {
          "internalType": "bytes32[]",
          "name": "",
          "type": "bytes32[]"
        },
        {
          "internalType": "uint256[]",
          "name": "",
          "type": "uint256[]"
        },
        {
          "internalType": "bytes32[]",
          "name": "",
          "type": "bytes32[]"
        },
        {
          "internalType": "bytes32[]",
          "name": "",
          "type": "bytes32[]"
        }
      ],
      "stateMutability": "view",
      "type": "function"
    },
    {
      "inputs": [
        {
          "internalType": "bytes32",
          "name": "_manufactuerID",
          "type": "bytes32"
        },
        {
          "internalType": "bytes32",
          "name": "_productName",
          "type": "bytes32"
        },
        {
          "internalType": "bytes32",
          "name": "_productSN",
          "type": "bytes32"
        },
        {
          "internalType": "bytes32",
          "name": "_productBrand",
          "type": "bytes32"
        },
        {
          "internalType": "uint256",
          "name": "_productPrice",
          "type": "uint256"
        }
      ],
      "name": "addProduct",
      "outputs": [],
      "stateMutability": "nonpayable",
      "type": "function"
    },
    {
      "inputs": [],
      "name": "viewProductItems",
      "outputs": [
        {
          "internalType": "uint256[]",
          "name": "",
          "type": "uint256[]"
        },
        {
          "internalType": "bytes32[]",
          "name": "",
          "type": "bytes32[]"
        },
        {
          "internalType": "bytes32[]",
          "name": "",
          "type": "bytes32[]"
        },
        {
          "internalType": "bytes32[]",
          "name": "",
          "type": "bytes32[]"
        },
        {
          "internalType": "uint256[]",
          "name": "",
          "type": "uint256[]"
        },
        {
          "internalType": "bytes32[]",
          "name": "",
          "type": "bytes32[]"
        }
      ],
      "stateMutability": "view",
      "type": "function"
    },
    {
      "inputs": [
        {
          "internalType": "bytes32",
          "name": "_productSN",
          "type": "bytes32"
        },
        {
          "internalType": "bytes32",
          "name": "_sellerCode",
          "type": "bytes32"
        }
      ],
      "name": "manufacturerSellProduct",
      "outputs": [],
      "stateMutability": "nonpayable",
      "type": "function"
    },
    {
      "inputs": [
        {
          "internalType": "bytes32",
          "name": "_productSN",
          "type": "bytes32"
        },
        {
          "internalType": "bytes32",
          "name": "_consumerCode",
          "type": "bytes32"
        }
      ],
      "name": "sellerSellProduct",
      "outputs": [],
      "stateMutability": "nonpayable",
      "type": "function"
    },
    {
      "inputs": [
        {
          "internalType": "bytes32",
          "name": "_productSN",
          "type": "bytes32"
        },
        {
          "internalType": "bytes32",
          "name": "_consumerCode",
          "type": "bytes32"
        }
      ],
      "name": "consumerSellProduct",
      "outputs": [],
      "stateMutability": "nonpayable",
      "type": "function"
    },
    {
      "inputs": [
        {
          "internalType": "bytes32",
          "name": "_sellerCode",
          "type": "bytes32"
        }
      ],
      "name": "queryProductsList",
      "outputs": [
        {
          "internalType": "uint256[]",
          "name": "",
          "type": "uint256[]"
        },
        {
          "internalType": "bytes32[]",
          "name": "",
          "type": "bytes32[]"
        },
        {
          "internalType": "bytes32[]",
          "name": "",
          "type": "bytes32[]"
        },
        {
          "internalType": "bytes32[]",
          "name": "",
          "type": "bytes32[]"
        },
        {
          "internalType": "uint256[]",
          "name": "",
          "type": "uint256[]"
        },
        {
          "internalType": "bytes32[]",
          "name": "",
          "type": "bytes32[]"
        }
      ],
      "stateMutability": "view",
      "type": "function"
    },
    {
      "inputs": [
        {
          "internalType": "bytes32",
          "name": "_manufacturerCode",
          "type": "bytes32"
        }
      ],
      "name": "querySellersList",
      "outputs": [
        {
          "internalType": "uint256[]",
          "name": "",
          "type": "uint256[]"
        },
        {
          "internalType": "bytes32[]",
          "name": "",
          "type": "bytes32[]"
        },
        {
          "internalType": "bytes32[]",
          "name": "",
          "type": "bytes32[]"
        },
        {
          "internalType": "bytes32[]",
          "name": "",
          "type": "bytes32[]"
        },
        {
          "internalType": "uint256[]",
          "name": "",
          "type": "uint256[]"
        },
        {
          "internalType": "bytes32[]",
          "name": "",
          "type": "bytes32[]"
        },
        {
          "internalType": "bytes32[]",
          "name": "",
          "type": "bytes32[]"
        }
      ],
      "stateMutability": "view",
      "type": "function"
    },
    {
      "inputs": [
        {
          "internalType": "bytes32",
          "name": "_consumerCode",
          "type": "bytes32"
        }
      ],
      "name": "getPurchaseHistory",
      "outputs": [
        {
          "internalType": "bytes32[]",
          "name": "",
          "type": "bytes32[]"
        },
        {
          "internalType": "bytes32[]",
          "name": "",
          "type": "bytes32[]"
        },
        {
          "internalType": "bytes32[]",
          "name": "",
          "type": "bytes32[]"
        }
      ],
      "stateMutability": "view",
      "type": "function"
    },
    {
      "inputs": [
        {
          "internalType": "bytes32",
          "name": "_productSN",
          "type": "bytes32"
        },
        {
          "internalType": "bytes32",
          "name": "_consumerCode",
          "type": "bytes32"
        }
      ],
      "name": "verifyProduct",
      "outputs": [
        {
          "internalType": "bool",
          "name": "",
          "type": "bool"
        }
      ],
      "stateMutability": "view",
      "type": "function"
    }
  ],
  "bytecode": "0x608060405234801561001057600080fd5b50612580806100206000396000f3fe608060405234801561001057600080fd5b506004361061012c5760003560e01c80639316bff0116100ad578063c20805b411610071578063c20805b414610391578063caaf2751146103c1578063cd4f6a2e146103f8578063cee26ed514610428578063e262113f1461045e5761012c565b80639316bff0146102c75780639cd777dd146102e35780639ea4695d14610313578063a090f47c14610345578063b0c7ad94146103755761012c565b8063344b5d51116100f4578063344b5d51146101fa5780634b9930011461022a578063526b2be61461025a5780638577a7011461027657806392162bc4146102925761012c565b8063032f95e614610131578063100b6ba214610155578063130aa81f146101855780631836bd4b146101bb5780631b3658c8146101de575b600080fd5b61013961048e565b60405161014c9796959493929190611f32565b60405180910390f35b61016f600480360381019061016a9190612003565b61087b565b60405161017c919061203f565b60405180910390f35b61019f600480360381019061019a9190612003565b610893565b6040516101b29796959493929190611f32565b60405180910390f35b6101c3610d56565b6040516101d59695949392919061205a565b60405180910390f35b6101f860048036038101906101f39190612111565b6110be565b005b610214600480360381019061020f91906121b3565b6111aa565b604051610221919061220e565b60405180910390f35b610244600480360381019061023f9190612229565b6111db565b6040516102519190612278565b60405180910390f35b610274600480360381019061026f91906121b3565b61120c565b005b610290600480360381019061028b91906121b3565b611381565b005b6102ac60048036038101906102a79190612003565b6113d7565b6040516102be9695949392919061205a565b60405180910390f35b6102e160048036038101906102dc9190612293565b611810565b005b6102fd60048036038101906102f89190612229565b611929565b60405161030a9190612278565b60405180910390f35b61032d60048036038101906103289190612003565b61195a565b60405161033c9392919061230e565b60405180910390f35b61035f600480360381019061035a9190612003565b611b2e565b60405161036c9190612278565b60405180910390f35b61038f600480360381019061038a91906121b3565b611b46565b005b6103ab60048036038101906103a69190612003565b611cb7565b6040516103b89190612278565b60405180910390f35b6103db60048036038101906103d6919061235a565b611ccf565b6040516103ef989796959493929190612387565b60405180910390f35b610412600480360381019061040d9190612003565b611d17565b60405161041f9190612278565b60405180910390f35b610442600480360381019061043d919061235a565b611d2f565b6040516104559796959493929190612405565b60405180910390f35b61047860048036038101906104739190612229565b611d71565b6040516104859190612278565b60405180910390f35b60608060608060608060606000805467ffffffffffffffff8111156104b6576104b5612474565b5b6040519080825280602002602001820160405280156104e45781602001602082028036833780820191505090505b5090506000805467ffffffffffffffff81111561050457610503612474565b5b6040519080825280602002602001820160405280156105325781602001602082028036833780820191505090505b5090506000805467ffffffffffffffff81111561055257610551612474565b5b6040519080825280602002602001820160405280156105805781602001602082028036833780820191505090505b5090506000805467ffffffffffffffff8111156105a05761059f612474565b5b6040519080825280602002602001820160405280156105ce5781602001602082028036833780820191505090505b5090506000805467ffffffffffffffff8111156105ee576105ed612474565b5b60405190808252806020026020018201604052801561061c5781602001602082028036833780820191505090505b5090506000805467ffffffffffffffff81111561063c5761063b612474565b5b60405190808252806020026020018201604052801561066a5781602001602082028036833780820191505090505b5090506000805467ffffffffffffffff81111561068a57610689612474565b5b6040519080825280602002602001820160405280156106b85781602001602082028036833780820191505090505b50905060005b6000548110156108555760036000828152602001908152602001600020600001548882815181106106f2576106f16124a3565b5b6020026020010181815250506003600082815260200190815260200160002060010154878281518110610728576107276124a3565b5b602002602001018181525050600360008281526020019081526020016000206002015486828151811061075e5761075d6124a3565b5b6020026020010181815250506003600082815260200190815260200160002060030154858281518110610794576107936124a3565b5b60200260200101818152505060036000828152602001908152602001600020600401548482815181106107ca576107c96124a3565b5b6020026020010181815250506003600082815260200190815260200160002060050154838281518110610800576107ff6124a3565b5b6020026020010181815250506003600082815260200190815260200160002060060154828281518110610836576108356124a3565b5b602002602001018181525050808061084d90612501565b9150506106be565b50868686868686869d509d509d509d509d509d509d505050505050505090919293949596565b60056020528060005260406000206000915090505481565b60608060608060608060606000600b60008a81526020019081526020016000208054806020026020016040519081016040528092919081815260200182805480156108fd57602002820191906000526020600020905b8154815260200190600101908083116108e9575b50505050509050600080805467ffffffffffffffff81111561092257610921612474565b5b6040519080825280602002602001820160405280156109505781602001602082028036833780820191505090505b5090506000805467ffffffffffffffff8111156109705761096f612474565b5b60405190808252806020026020018201604052801561099e5781602001602082028036833780820191505090505b5090506000805467ffffffffffffffff8111156109be576109bd612474565b5b6040519080825280602002602001820160405280156109ec5781602001602082028036833780820191505090505b5090506000805467ffffffffffffffff811115610a0c57610a0b612474565b5b604051908082528060200260200182016040528015610a3a5781602001602082028036833780820191505090505b5090506000805467ffffffffffffffff811115610a5a57610a59612474565b5b604051908082528060200260200182016040528015610a885781602001602082028036833780820191505090505b5090506000805467ffffffffffffffff811115610aa857610aa7612474565b5b604051908082528060200260200182016040528015610ad65781602001602082028036833780820191505090505b5090506000805467ffffffffffffffff811115610af657610af5612474565b5b604051908082528060200260200182016040528015610b245781602001602082028036833780820191505090505b50905060005b600054811015610d2c5760005b8a51811015610d18578a8181518110610b5357610b526124a3565b5b602002602001015160036000848152602001908152602001600020600301541415610d05576003600083815260200190815260200160002060000154898b81518110610ba257610ba16124a3565b5b6020026020010181815250506003600083815260200190815260200160002060010154888b81518110610bd857610bd76124a3565b5b6020026020010181815250506003600083815260200190815260200160002060020154878b81518110610c0e57610c0d6124a3565b5b6020026020010181815250506003600083815260200190815260200160002060030154868b81518110610c4457610c436124a3565b5b6020026020010181815250506003600083815260200190815260200160002060040154858b81518110610c7a57610c796124a3565b5b6020026020010181815250506003600083815260200190815260200160002060050154848b81518110610cb057610caf6124a3565b5b6020026020010181815250506003600083815260200190815260200160002060060154838b81518110610ce657610ce56124a3565b5b6020026020010181815250508980610cfd90612501565b9a5050610d18565b8080610d1090612501565b915050610b37565b508080610d2490612501565b915050610b2a565b50868686868686869f509f509f509f509f509f509f50505050505050505050919395979092949650565b606080606080606080600060015467ffffffffffffffff811115610d7d57610d7c612474565b5b604051908082528060200260200182016040528015610dab5781602001602082028036833780820191505090505b509050600060015467ffffffffffffffff811115610dcc57610dcb612474565b5b604051908082528060200260200182016040528015610dfa5781602001602082028036833780820191505090505b509050600060015467ffffffffffffffff811115610e1b57610e1a612474565b5b604051908082528060200260200182016040528015610e495781602001602082028036833780820191505090505b509050600060015467ffffffffffffffff811115610e6a57610e69612474565b5b604051908082528060200260200182016040528015610e985781602001602082028036833780820191505090505b509050600060015467ffffffffffffffff811115610eb957610eb8612474565b5b604051908082528060200260200182016040528015610ee75781602001602082028036833780820191505090505b509050600060015467ffffffffffffffff811115610f0857610f07612474565b5b604051908082528060200260200182016040528015610f365781602001602082028036833780820191505090505b50905060005b60015481101561109d576004600082815260200190815260200160002060000154878281518110610f7057610f6f6124a3565b5b6020026020010181815250506004600082815260200190815260200160002060010154868281518110610fa657610fa56124a3565b5b6020026020010181815250506004600082815260200190815260200160002060020154858281518110610fdc57610fdb6124a3565b5b6020026020010181815250506004600082815260200190815260200160002060030154848281518110611012576110116124a3565b5b6020026020010181815250506004600082815260200190815260200160002060040154838281518110611048576110476124a3565b5b602002602001018181525050600460008281526020019081526020016000206005015482828151811061107e5761107d6124a3565b5b602002602001018181525050808061109590612501565b915050610f3c565b508585858585859b509b509b509b509b509b50505050505050909192939495565b6040518060e001604052806000548152602001878152602001868152602001858152602001848152602001838152602001828152506003600080548152602001908152602001600020600082015181600001556020820151816001015560408201518160020155606082015181600301556080820151816004015560a0820151816005015560c0820151816006015590505060008081548092919061116290612501565b9190505550600b600088815260200190815260200160002084908060018154018082558091505060019003906000526020600020016000909190919091505550505050505050565b600081600860008581526020019081526020016000205414156111d057600190506111d5565b600090505b92915050565b600960205281600052604060002081815481106111f757600080fd5b90600052602060002001600091509150505481565b600080600080600154111561126457600091505b60015482101561126357846004600084815260200190815260200160002060010154141561125057819050611263565b818061125b90612501565b925050611220565b5b600460008281526020019081526020016000206005015492507f417661696c61626c65000000000000000000000000000000000000000000000083141561137a577f4e41000000000000000000000000000000000000000000000000000000000000600460008381526020019081526020016000206005018190555060046000828152602001908152602001600020600601600081548092919061130790612501565b9190505550836004600083815260200190815260200160002060070181905550600a60008581526020019081526020016000208590806001815401808255809150506001900390600052602060002001600090919091909150558360086000878152602001908152602001600020819055505b5050505050565b600960008281526020019081526020016000208290806001815401808255809150506001900390600052602060002001600090919091909150558060076000848152602001908152602001600020819055505050565b60608060608060608060006009600089815260200190815260200160002080548060200260200160405190810160405280929190818152602001828054801561143f57602002820191906000526020600020905b81548152602001906001019080831161142b575b5050505050905060008060015467ffffffffffffffff81111561146557611464612474565b5b6040519080825280602002602001820160405280156114935781602001602082028036833780820191505090505b509050600060015467ffffffffffffffff8111156114b4576114b3612474565b5b6040519080825280602002602001820160405280156114e25781602001602082028036833780820191505090505b509050600060015467ffffffffffffffff81111561150357611502612474565b5b6040519080825280602002602001820160405280156115315781602001602082028036833780820191505090505b509050600060015467ffffffffffffffff81111561155257611551612474565b5b6040519080825280602002602001820160405280156115805781602001602082028036833780820191505090505b509050600060015467ffffffffffffffff8111156115a1576115a0612474565b5b6040519080825280602002602001820160405280156115cf5781602001602082028036833780820191505090505b509050600060015467ffffffffffffffff8111156115f0576115ef612474565b5b60405190808252806020026020018201604052801561161e5781602001602082028036833780820191505090505b50905060005b6001548110156117ec5760005b89518110156117d85789818151811061164d5761164c6124a3565b5b6020026020010151600460008481526020019081526020016000206001015414156117c5576004600083815260200190815260200160002060000154888a8151811061169c5761169b6124a3565b5b6020026020010181815250506004600083815260200190815260200160002060010154878a815181106116d2576116d16124a3565b5b6020026020010181815250506004600083815260200190815260200160002060020154868a81518110611708576117076124a3565b5b6020026020010181815250506004600083815260200190815260200160002060030154858a8151811061173e5761173d6124a3565b5b6020026020010181815250506004600083815260200190815260200160002060040154848a81518110611774576117736124a3565b5b6020026020010181815250506004600083815260200190815260200160002060050154838a815181106117aa576117a96124a3565b5b60200260200101818152505088806117c190612501565b9950505b80806117d090612501565b915050611631565b5080806117e490612501565b915050611624565b508585858585859d509d509d509d509d509d50505050505050505091939550919395565b60405180610100016040528060015481526020018481526020018581526020018381526020018281526020017f417661696c61626c6500000000000000000000000000000000000000000000008152602001600081526020016000801b815250600460006001548152602001908152602001600020600082015181600001556020820151816001015560408201518160020155606082015181600301556080820151816004015560a0820151816005015560c0820151816006015560e0820151816007015590505060015460056000858152602001908152602001600020819055506001600081548092919061190590612501565b91905055508460066000858152602001908152602001600020819055505050505050565b600a602052816000526040600020818154811061194557600080fd5b90600052602060002001600091509150505481565b60608060606000600a60008681526020019081526020016000208054806020026020016040519081016040528092919081815260200182805480156119be57602002820191906000526020600020905b8154815260200190600101908083116119aa575b505050505090506000815167ffffffffffffffff8111156119e2576119e1612474565b5b604051908082528060200260200182016040528015611a105781602001602082028036833780820191505090505b5090506000825167ffffffffffffffff811115611a3057611a2f612474565b5b604051908082528060200260200182016040528015611a5e5781602001602082028036833780820191505090505b50905060005b8351811015611b1a5760076000858381518110611a8457611a836124a3565b5b6020026020010151815260200190815260200160002054838281518110611aae57611aad6124a3565b5b60200260200101818152505060066000858381518110611ad157611ad06124a3565b5b6020026020010151815260200190815260200160002054828281518110611afb57611afa6124a3565b5b6020026020010181815250508080611b1290612501565b915050611a64565b508282829550955095505050509193909250565b60076020528060005260406000206000915090505481565b6000806000806001541115611b9a57600091505b600154821015611b99578460046000848152602001908152602001600020600101541415611b86578190505b8180611b9190612501565b925050611b5a565b5b600460008281526020019081526020016000206005015492507f417661696c61626c650000000000000000000000000000000000000000000000831415611cb0577f4e410000000000000000000000000000000000000000000000000000000000006004600083815260200190815260200160002060050181905550600460008281526020019081526020016000206006016000815480929190611c3d90612501565b9190505550836004600083815260200190815260200160002060070181905550600a60008581526020019081526020016000208590806001815401808255809150506001900390600052602060002001600090919091909150558360086000878152602001908152602001600020819055505b5050505050565b60066020528060005260406000206000915090505481565b60046020528060005260406000206000915090508060000154908060010154908060020154908060030154908060040154908060050154908060060154908060070154905088565b60086020528060005260406000206000915090505481565b60036020528060005260406000206000915090508060000154908060010154908060020154908060030154908060040154908060050154908060060154905087565b600b6020528160005260406000208181548110611d8d57600080fd5b90600052602060002001600091509150505481565b600081519050919050565b600082825260208201905092915050565b6000819050602082019050919050565b6000819050919050565b611de181611dce565b82525050565b6000611df38383611dd8565b60208301905092915050565b6000602082019050919050565b6000611e1782611da2565b611e218185611dad565b9350611e2c83611dbe565b8060005b83811015611e5d578151611e448882611de7565b9750611e4f83611dff565b925050600181019050611e30565b5085935050505092915050565b600081519050919050565b600082825260208201905092915050565b6000819050602082019050919050565b6000819050919050565b611ea981611e96565b82525050565b6000611ebb8383611ea0565b60208301905092915050565b6000602082019050919050565b6000611edf82611e6a565b611ee98185611e75565b9350611ef483611e86565b8060005b83811015611f25578151611f0c8882611eaf565b9750611f1783611ec7565b925050600181019050611ef8565b5085935050505092915050565b600060e0820190508181036000830152611f4c818a611e0c565b90508181036020830152611f608189611ed4565b90508181036040830152611f748188611ed4565b90508181036060830152611f888187611ed4565b90508181036080830152611f9c8186611e0c565b905081810360a0830152611fb08185611ed4565b905081810360c0830152611fc48184611ed4565b905098975050505050505050565b600080fd5b611fe081611e96565b8114611feb57600080fd5b50565b600081359050611ffd81611fd7565b92915050565b60006020828403121561201957612018611fd2565b5b600061202784828501611fee565b91505092915050565b61203981611dce565b82525050565b60006020820190506120546000830184612030565b92915050565b600060c08201905081810360008301526120748189611e0c565b905081810360208301526120888188611ed4565b9050818103604083015261209c8187611ed4565b905081810360608301526120b08186611ed4565b905081810360808301526120c48185611e0c565b905081810360a08301526120d88184611ed4565b9050979650505050505050565b6120ee81611dce565b81146120f957600080fd5b50565b60008135905061210b816120e5565b92915050565b600080600080600080600060e0888a0312156121305761212f611fd2565b5b600061213e8a828b01611fee565b975050602061214f8a828b01611fee565b96505060406121608a828b01611fee565b95505060606121718a828b01611fee565b94505060806121828a828b016120fc565b93505060a06121938a828b01611fee565b92505060c06121a48a828b01611fee565b91505092959891949750929550565b600080604083850312156121ca576121c9611fd2565b5b60006121d885828601611fee565b92505060206121e985828601611fee565b9150509250929050565b60008115159050919050565b612208816121f3565b82525050565b600060208201905061222360008301846121ff565b92915050565b600080604083850312156122405761223f611fd2565b5b600061224e85828601611fee565b925050602061225f858286016120fc565b9150509250929050565b61227281611e96565b82525050565b600060208201905061228d6000830184612269565b92915050565b600080600080600060a086880312156122af576122ae611fd2565b5b60006122bd88828901611fee565b95505060206122ce88828901611fee565b94505060406122df88828901611fee565b93505060606122f088828901611fee565b9250506080612301888289016120fc565b9150509295509295909350565b600060608201905081810360008301526123288186611ed4565b9050818103602083015261233c8185611ed4565b905081810360408301526123508184611ed4565b9050949350505050565b6000602082840312156123705761236f611fd2565b5b600061237e848285016120fc565b91505092915050565b60006101008201905061239d600083018b612030565b6123aa602083018a612269565b6123b76040830189612269565b6123c46060830188612269565b6123d16080830187612030565b6123de60a0830186612269565b6123eb60c0830185612030565b6123f860e0830184612269565b9998505050505050505050565b600060e08201905061241a600083018a612030565b6124276020830189612269565b6124346040830188612269565b6124416060830187612269565b61244e6080830186612030565b61245b60a0830185612269565b61246860c0830184612269565b98975050505050505050565b7f4e487b7100000000000000000000000000000000000000000000000000000000600052604160045260246000fd5b7f4e487b7100000000000000000000000000000000000000000000000000000000600052603260045260246000fd5b7f4e487b7100000000000000000000000000000000000000000000000000000000600052601160045260246000fd5b600061250c82611dce565b91507fffffffffffffffffffffffffffffffffffffffffffffffffffffffffffffffff82141561253f5761253e6124d2565b5b60018201905091905056fea264697066735822122079567c69475afbb84e1c073f53fe75366914cff00ccbd0a233b367ad831cf96a64736f6c634300080c0033",
  "immutableReferences": {},
  "source": "\r\n// pragma solidity ^0.8.12;\r\n\r\n// contract product {\r\n\r\n//     uint256 sellerCount;\r\n//     uint256 productCount;\r\n\r\n//     struct seller{\r\n//         uint256 sellerId;\r\n//         bytes32 sellerName;\r\n//         bytes32 sellerBrand;\r\n//         bytes32 sellerCode;\r\n//         uint256 sellerNum;\r\n//         bytes32 sellerManager;\r\n//         bytes32 sellerAddress;\r\n//     }\r\n//     mapping(uint=>seller) public sellers;\r\n\r\n//     struct productItem{\r\n//         uint256 productId;\r\n//         bytes32 productSN;\r\n//         bytes32 productName;\r\n//         bytes32 productBrand;\r\n//         uint256 productPrice;\r\n//         bytes32 productStatus;\r\n//     }\r\n\r\n//     mapping(uint256=>productItem) public productItems;\r\n//     mapping(bytes32=>uint256) public productMap;\r\n//     mapping(bytes32=>bytes32) public productsManufactured;\r\n//     mapping(bytes32=>bytes32) public productsForSale;\r\n//     mapping(bytes32=>bytes32) public productsSold;\r\n//     mapping(bytes32=>bytes32[]) public productsWithSeller;\r\n//     mapping(bytes32=>bytes32[]) public productsWithConsumer;\r\n//     mapping(bytes32=>bytes32[]) public sellersWithManufacturer;\r\n\r\n\r\n//     //SELLER SECTION\r\n\r\n//     function addSeller(bytes32 _manufacturerId, bytes32 _sellerName, bytes32 _sellerBrand, bytes32 _sellerCode,\r\n//     uint256 _sellerNum, bytes32 _sellerManager, bytes32 _sellerAddress) public{\r\n//         sellers[sellerCount] = seller(sellerCount, _sellerName, _sellerBrand, _sellerCode,\r\n//         _sellerNum, _sellerManager, _sellerAddress);\r\n//         sellerCount++;\r\n\r\n//         sellersWithManufacturer[_manufacturerId].push(_sellerCode);\r\n//     }\r\n\r\n\r\n//     function viewSellers () public view returns(uint256[] memory, bytes32[] memory, bytes32[] memory, bytes32[] memory, uint256[] memory, bytes32[] memory, bytes32[] memory) {\r\n//         uint256[] memory ids = new uint256[](sellerCount);\r\n//         bytes32[] memory snames = new bytes32[](sellerCount);\r\n//         bytes32[] memory sbrands = new bytes32[](sellerCount);\r\n//         bytes32[] memory scodes = new bytes32[](sellerCount);\r\n//         uint256[] memory snums = new uint256[](sellerCount);\r\n//         bytes32[] memory smanagers = new bytes32[](sellerCount);\r\n//         bytes32[] memory saddress = new bytes32[](sellerCount);\r\n        \r\n//         for(uint i=0; i<sellerCount; i++){\r\n//             ids[i] = sellers[i].sellerId;\r\n//             snames[i] = sellers[i].sellerName;\r\n//             sbrands[i] = sellers[i].sellerBrand;\r\n//             scodes[i] = sellers[i].sellerCode;\r\n//             snums[i] = sellers[i].sellerNum;\r\n//             smanagers[i] = sellers[i].sellerManager;\r\n//             saddress[i] = sellers[i].sellerAddress;\r\n//         }\r\n//         return(ids, snames, sbrands, scodes, snums, smanagers, saddress);\r\n//     }\r\n\r\n//     //PRODUCT SECTION\r\n\r\n//     function addProduct(bytes32 _manufactuerID, bytes32 _productName, bytes32 _productSN, bytes32 _productBrand,\r\n//     uint256 _productPrice) public{\r\n//         productItems[productCount] = productItem(productCount, _productSN, _productName, _productBrand,\r\n//         _productPrice, \"Available\");\r\n//         productMap[_productSN] = productCount;\r\n//         productCount++;\r\n//         productsManufactured[_productSN] = _manufactuerID;\r\n//     }\r\n\r\n\r\n\r\n//     function viewProductItems () public view returns(uint256[] memory, bytes32[] memory, bytes32[] memory, bytes32[] memory, uint256[] memory, bytes32[] memory) {\r\n//         uint256[] memory pids = new uint256[](productCount);\r\n//         bytes32[] memory pSNs = new bytes32[](productCount);\r\n//         bytes32[] memory pnames = new bytes32[](productCount);\r\n//         bytes32[] memory pbrands = new bytes32[](productCount);\r\n//         uint256[] memory pprices = new uint256[](productCount);\r\n//         bytes32[] memory pstatus = new bytes32[](productCount);\r\n        \r\n//         for(uint i=0; i<productCount; i++){\r\n//             pids[i] = productItems[i].productId;\r\n//             pSNs[i] = productItems[i].productSN;\r\n//             pnames[i] = productItems[i].productName;\r\n//             pbrands[i] = productItems[i].productBrand;\r\n//             pprices[i] = productItems[i].productPrice;\r\n//             pstatus[i] = productItems[i].productStatus;\r\n//         }\r\n//         return(pids, pSNs, pnames, pbrands, pprices, pstatus);\r\n//     }\r\n\r\n//     //SELL Product\r\n\r\n//     function manufacturerSellProduct(bytes32 _productSN, bytes32 _sellerCode) public{\r\n//         productsWithSeller[_sellerCode].push(_productSN);\r\n//         productsForSale[_productSN] = _sellerCode;\r\n\r\n//     }\r\n\r\n//     function sellerSellProduct(bytes32 _productSN, bytes32 _consumerCode) public{   \r\n//         bytes32 pStatus;\r\n//         uint256 i;\r\n//         uint256 j=0;\r\n\r\n//         if(productCount>0) {\r\n//             for(i=0;i<productCount;i++) {\r\n//                 if(productItems[i].productSN == _productSN) {\r\n//                     j=i;\r\n//                 }\r\n//             }\r\n//         }\r\n\r\n//         pStatus = productItems[j].productStatus;\r\n//         if(pStatus == \"Available\") {\r\n//             productItems[j].productStatus = \"NA\";\r\n//             productsWithConsumer[_consumerCode].push(_productSN);\r\n//             productsSold[_productSN] = _consumerCode;\r\n//         }\r\n\r\n\r\n//     }\r\n\r\n\r\n//     function queryProductsList(bytes32 _sellerCode) public view returns(uint256[] memory, bytes32[] memory, bytes32[] memory, bytes32[] memory, uint256[] memory, bytes32[] memory){\r\n//         bytes32[] memory productSNs = productsWithSeller[_sellerCode];\r\n//         uint256 k=0;\r\n\r\n//         uint256[] memory pids = new uint256[](productCount);\r\n//         bytes32[] memory pSNs = new bytes32[](productCount);\r\n//         bytes32[] memory pnames = new bytes32[](productCount);\r\n//         bytes32[] memory pbrands = new bytes32[](productCount);\r\n//         uint256[] memory pprices = new uint256[](productCount);\r\n//         bytes32[] memory pstatus = new bytes32[](productCount);\r\n\r\n        \r\n//         for(uint i=0; i<productCount; i++){\r\n//             for(uint j=0; j<productSNs.length; j++){\r\n//                 if(productItems[i].productSN==productSNs[j]){\r\n//                     pids[k] = productItems[i].productId;\r\n//                     pSNs[k] = productItems[i].productSN;\r\n//                     pnames[k] = productItems[i].productName;\r\n//                     pbrands[k] = productItems[i].productBrand;\r\n//                     pprices[k] = productItems[i].productPrice;\r\n//                     pstatus[k] = productItems[i].productStatus;\r\n//                     k++;\r\n//                 }\r\n//             }\r\n//         }\r\n//         return(pids, pSNs, pnames, pbrands, pprices, pstatus);\r\n//     }\r\n\r\n//     function querySellersList (bytes32 _manufacturerCode) public view returns(uint256[] memory, bytes32[] memory, bytes32[] memory, bytes32[] memory, uint256[] memory, bytes32[] memory, bytes32[] memory) {\r\n//         bytes32[] memory sellerCodes = sellersWithManufacturer[_manufacturerCode];\r\n//         uint256 k=0;\r\n//         uint256[] memory ids = new uint256[](sellerCount);\r\n//         bytes32[] memory snames = new bytes32[](sellerCount);\r\n//         bytes32[] memory sbrands = new bytes32[](sellerCount);\r\n//         bytes32[] memory scodes = new bytes32[](sellerCount);\r\n//         uint256[] memory snums = new uint256[](sellerCount);\r\n//         bytes32[] memory smanagers = new bytes32[](sellerCount);\r\n//         bytes32[] memory saddress = new bytes32[](sellerCount);\r\n        \r\n//         for(uint i=0; i<sellerCount; i++){\r\n//             for(uint j=0; j<sellerCodes.length; j++){\r\n//                 if(sellers[i].sellerCode==sellerCodes[j]){\r\n//                     ids[k] = sellers[i].sellerId;\r\n//                     snames[k] = sellers[i].sellerName;\r\n//                     sbrands[k] = sellers[i].sellerBrand;\r\n//                     scodes[k] = sellers[i].sellerCode;\r\n//                     snums[k] = sellers[i].sellerNum;\r\n//                     smanagers[k] = sellers[i].sellerManager;\r\n//                     saddress[k] = sellers[i].sellerAddress;\r\n//                     k++;\r\n//                     break;\r\n//                }\r\n//             }\r\n//         }\r\n\r\n//         return(ids, snames, sbrands, scodes, snums, smanagers, saddress);\r\n//     }\r\n\r\n//     function getPurchaseHistory(bytes32 _consumerCode) public view returns (bytes32[] memory, bytes32[] memory, bytes32[] memory){\r\n//         bytes32[] memory productSNs = productsWithConsumer[_consumerCode];\r\n//         bytes32[] memory sellerCodes = new bytes32[](productSNs.length);\r\n//         bytes32[] memory manufacturerCodes = new bytes32[](productSNs.length);\r\n//         for(uint i=0; i<productSNs.length; i++){\r\n//             sellerCodes[i] = productsForSale[productSNs[i]];\r\n//             manufacturerCodes[i] = productsManufactured[productSNs[i]];\r\n//         }\r\n//         return (productSNs, sellerCodes, manufacturerCodes);\r\n//     }\r\n\r\n//     //Verify\r\n\r\n//     function verifyProduct(bytes32 _productSN, bytes32 _consumerCode) public view returns(bool){\r\n//         if(productsSold[_productSN] == _consumerCode){\r\n//             return true;\r\n//         }\r\n//         else{\r\n//             return false;\r\n//         }\r\n//     }\r\n// }\r\n\r\n// SPDX-License-Identifier: MIT \r\npragma solidity ^0.8.12;\r\n\r\ncontract Product {\r\n\r\n    uint256 sellerCount;\r\n    uint256 productCount;\r\n    uint256 ownershipCount;\r\n\r\n    struct Seller {\r\n        uint256 sellerId;\r\n        bytes32 sellerName;\r\n        bytes32 sellerBrand;\r\n        bytes32 sellerCode;\r\n        uint256 sellerNum;\r\n        bytes32 sellerManager;\r\n        bytes32 sellerAddress;\r\n    }\r\n\r\n    mapping(uint256 => Seller) public sellers;\r\n\r\n    struct ProductItem {\r\n        uint256 productId;\r\n        bytes32 productSN;\r\n        bytes32 productName;\r\n        bytes32 productBrand;\r\n        uint256 productPrice;\r\n        bytes32 productStatus;\r\n        uint256 ownershipCount;\r\n        bytes32 currentConsumerCode;\r\n    }\r\n\r\n    mapping(uint256 => ProductItem) public productItems;\r\n    mapping(bytes32 => uint256) public productMap;\r\n    mapping(bytes32 => bytes32) public productsManufactured;\r\n    mapping(bytes32 => bytes32) public productsForSale;\r\n    mapping(bytes32 => bytes32) public productsSold;\r\n    mapping(bytes32 => bytes32[]) public productsWithSeller;\r\n    mapping(bytes32 => bytes32[]) public productsWithConsumer;\r\n    mapping(bytes32 => bytes32[]) public sellersWithManufacturer;\r\n\r\n\r\n    // SELLER SECTION\r\n\r\n    function addSeller(bytes32 _manufacturerId, bytes32 _sellerName, bytes32 _sellerBrand, bytes32 _sellerCode,\r\n    uint256 _sellerNum, bytes32 _sellerManager, bytes32 _sellerAddress) public {\r\n        sellers[sellerCount] = Seller(sellerCount, _sellerName, _sellerBrand, _sellerCode,\r\n        _sellerNum, _sellerManager, _sellerAddress);\r\n        sellerCount++;\r\n\r\n        sellersWithManufacturer[_manufacturerId].push(_sellerCode);\r\n    }\r\n\r\n    function viewSellers() public view returns(uint256[] memory, bytes32[] memory, bytes32[] memory, bytes32[] memory, uint256[] memory, bytes32[] memory, bytes32[] memory) {\r\n        uint256[] memory ids = new uint256[](sellerCount);\r\n        bytes32[] memory snames = new bytes32[](sellerCount);\r\n        bytes32[] memory sbrands = new bytes32[](sellerCount);\r\n        bytes32[] memory scodes = new bytes32[](sellerCount);\r\n        uint256[] memory snums = new uint256[](sellerCount);\r\n        bytes32[] memory smanagers = new bytes32[](sellerCount);\r\n        bytes32[] memory saddress = new bytes32[](sellerCount);\r\n        \r\n        for(uint i=0; i<sellerCount; i++){\r\n            ids[i] = sellers[i].sellerId;\r\n            snames[i] = sellers[i].sellerName;\r\n            sbrands[i] = sellers[i].sellerBrand;\r\n            scodes[i] = sellers[i].sellerCode;\r\n            snums[i] = sellers[i].sellerNum;\r\n            smanagers[i] = sellers[i].sellerManager;\r\n            saddress[i] = sellers[i].sellerAddress;\r\n        }\r\n        return(ids, snames, sbrands, scodes, snums, smanagers, saddress);\r\n    }\r\n\r\n    // PRODUCT SECTION\r\n\r\n    function addProduct(bytes32 _manufactuerID, bytes32 _productName, bytes32 _productSN, bytes32 _productBrand,\r\n    uint256 _productPrice) public {\r\n        productItems[productCount] = ProductItem(productCount, _productSN, _productName, _productBrand,\r\n        _productPrice, \"Available\", 0, bytes32(0));\r\n        productMap[_productSN] = productCount;\r\n        productCount++;\r\n        productsManufactured[_productSN] = _manufactuerID;\r\n    }\r\n\r\n    function viewProductItems() public view returns(uint256[] memory, bytes32[] memory, bytes32[] memory, bytes32[] memory, uint256[] memory, bytes32[] memory) {\r\n        uint256[] memory pids = new uint256[](productCount);\r\n        bytes32[] memory pSNs = new bytes32[](productCount);\r\n        bytes32[] memory pnames = new bytes32[](productCount);\r\n        bytes32[] memory pbrands = new bytes32[](productCount);\r\n        uint256[] memory pprices = new uint256[](productCount);\r\n        bytes32[] memory pstatus = new bytes32[](productCount);\r\n        \r\n        for(uint i=0; i<productCount; i++){\r\n            pids[i] = productItems[i].productId;\r\n            pSNs[i] = productItems[i].productSN;\r\n            pnames[i] = productItems[i].productName;\r\n            pbrands[i] = productItems[i].productBrand;\r\n            pprices[i] = productItems[i].productPrice;\r\n            pstatus[i] = productItems[i].productStatus;\r\n        }\r\n        return(pids, pSNs, pnames, pbrands, pprices, pstatus);\r\n    }\r\n    //     event ProductResold(uint256 indexed productId, bytes32 indexed newConsumerCode, uint256 ownershipCount);\r\n\r\n    // // Function to resell a product by a consumer\r\n    // function resellProduct(bytes32 _productSN, bytes32 _newConsumerCode) public {\r\n    //     uint256 productId = productMap[_productSN];\r\n    //     require(productId != 0, \"Product not found\");\r\n    //     require(productsSold[_productSN] != 0, \"Product not yet sold\");\r\n    //     require(productsSold[_productSN] != _newConsumerCode, \"Product is already owned by the new consumer\");\r\n\r\n    //     // Increment ownership count\r\n    //     productItems[productId].ownershipCount++;\r\n    //     // Set the new consumer code\r\n    //     productItems[productId].currentConsumerCode = _newConsumerCode;\r\n\r\n    //     // Emit event\r\n    //     emit ProductResold(productId, _newConsumerCode, productItems[productId].ownershipCount);\r\n    // }\r\n\r\n    // // Function to query ownership count of a product\r\n    // function getOwnershipCount(bytes32 _productSN) public view returns (uint256) {\r\n    //     uint256 productId = productMap[_productSN];\r\n    //     require(productId != 0, \"Product not found\");\r\n    //     return productItems[productId].ownershipCount;\r\n    // }\r\n    // Function to resell a product by a consumer\r\n\r\n\r\n\r\n    // SELL PRODUCT\r\n\r\n    function manufacturerSellProduct(bytes32 _productSN, bytes32 _sellerCode) public {\r\n        productsWithSeller[_sellerCode].push(_productSN);\r\n        productsForSale[_productSN] = _sellerCode;\r\n    }\r\n\r\n    function sellerSellProduct(bytes32 _productSN, bytes32 _consumerCode) public {\r\n        bytes32 pStatus;\r\n        uint256 i;\r\n        uint256 j=0;\r\n\r\n        if(productCount > 0) {\r\n            for(i=0; i<productCount; i++) {\r\n                if(productItems[i].productSN == _productSN) {\r\n                    j=i;\r\n                }\r\n            }\r\n        }\r\n\r\n        pStatus = productItems[j].productStatus;\r\n        if(pStatus == \"Available\") {\r\n            productItems[j].productStatus = \"NA\";\r\n            productItems[j].ownershipCount++;\r\n            productItems[j].currentConsumerCode = _consumerCode;\r\n            productsWithConsumer[_consumerCode].push(_productSN);\r\n            productsSold[_productSN] = _consumerCode;\r\n        }\r\n    }\r\n\r\n    //resell Product consumer\r\n    function consumerSellProduct(bytes32 _productSN, bytes32 _consumerCode) public {   \r\n        bytes32 pStatus;\r\n        uint256 i;\r\n        uint256 j = 0;\r\n\r\n        if (productCount > 0) {\r\n            for (i = 0; i < productCount; i++) {\r\n                if (productItems[i].productSN == _productSN) {\r\n                    j = i;\r\n                    break;\r\n                }\r\n            }\r\n        }\r\n\r\n        pStatus = productItems[j].productStatus;\r\n        if (pStatus == \"Available\") {\r\n            productItems[j].productStatus = \"NA\";\r\n            productItems[j].ownershipCount++;\r\n            productItems[j].currentConsumerCode = _consumerCode;\r\n            productsWithConsumer[_consumerCode].push(_productSN);\r\n            productsSold[_productSN] = _consumerCode;\r\n        }\r\n    }\r\n\r\n\r\n    function queryProductsList(bytes32 _sellerCode) public view returns(uint256[] memory, bytes32[] memory, bytes32[] memory, bytes32[] memory, uint256[] memory, bytes32[] memory) {\r\n        bytes32[] memory productSNs = productsWithSeller[_sellerCode];\r\n        uint256 k=0;\r\n\r\n        uint256[] memory pids = new uint256[](productCount);\r\n        bytes32[] memory pSNs = new bytes32[](productCount);\r\n        bytes32[] memory pnames = new bytes32[](productCount);\r\n        bytes32[] memory pbrands = new bytes32[](productCount);\r\n        uint256[] memory pprices = new uint256[](productCount);\r\n        bytes32[] memory pstatus = new bytes32[](productCount);\r\n\r\n        for(uint i=0; i<productCount; i++){\r\n            for(uint j=0; j<productSNs.length; j++){\r\n                if(productItems[i].productSN == productSNs[j]){\r\n                    pids[k] = productItems[i].productId;\r\n                    pSNs[k] = productItems[i].productSN;\r\n                    pnames[k] = productItems[i].productName;\r\n                    pbrands[k] = productItems[i].productBrand;\r\n                    pprices[k] = productItems[i].productPrice;\r\n                    pstatus[k] = productItems[i].productStatus;\r\n                    k++;\r\n                }\r\n            }\r\n        }\r\n        return(pids, pSNs, pnames, pbrands, pprices, pstatus);\r\n    }\r\n\r\n    function querySellersList(bytes32 _manufacturerCode) public view returns(uint256[] memory, bytes32[] memory, bytes32[] memory, bytes32[] memory, uint256[] memory, bytes32[] memory, bytes32[] memory) {\r\n        bytes32[] memory sellerCodes = sellersWithManufacturer[_manufacturerCode];\r\n        uint256 k=0;\r\n        uint256[] memory ids = new uint256[](sellerCount);\r\n        bytes32[] memory snames = new bytes32[](sellerCount);\r\n        bytes32[] memory sbrands = new bytes32[](sellerCount);\r\n        bytes32[] memory scodes = new bytes32[](sellerCount);\r\n        uint256[] memory snums = new uint256[](sellerCount);\r\n        bytes32[] memory smanagers = new bytes32[](sellerCount);\r\n        bytes32[] memory saddress = new bytes32[](sellerCount);\r\n        \r\n        for(uint i=0; i<sellerCount; i++){\r\n            for(uint j=0; j<sellerCodes.length; j++){\r\n                if(sellers[i].sellerCode == sellerCodes[j]){\r\n                    ids[k] = sellers[i].sellerId;\r\n                    snames[k] = sellers[i].sellerName;\r\n                    sbrands[k] = sellers[i].sellerBrand;\r\n                    scodes[k] = sellers[i].sellerCode;\r\n                    snums[k] = sellers[i].sellerNum;\r\n                    smanagers[k] = sellers[i].sellerManager;\r\n                    saddress[k] = sellers[i].sellerAddress;\r\n                    k++;\r\n                    break;\r\n                }\r\n            }\r\n        }\r\n\r\n        return(ids, snames, sbrands, scodes, snums, smanagers, saddress);\r\n    }\r\n\r\n    function getPurchaseHistory(bytes32 _consumerCode) public view returns(bytes32[] memory, bytes32[] memory, bytes32[] memory) {\r\n        bytes32[] memory productSNs = productsWithConsumer[_consumerCode];\r\n        bytes32[] memory sellerCodes = new bytes32[](productSNs.length);\r\n        bytes32[] memory manufacturerCodes = new bytes32[](productSNs.length);\r\n        for(uint i=0; i<productSNs.length; i++){\r\n            sellerCodes[i] = productsForSale[productSNs[i]];\r\n            manufacturerCodes[i] = productsManufactured[productSNs[i]];\r\n        }\r\n        return (productSNs, sellerCodes, manufacturerCodes);\r\n    }\r\n\r\n    // VERIFY\r\n\r\n    function verifyProduct(bytes32 _productSN, bytes32 _consumerCode) public view returns(bool){\r\n        if(productsSold[_productSN] == _consumerCode){\r\n            return true;\r\n        }\r\n        else{\r\n            return false;\r\n        }\r\n    }\r\n}\r\n",
  "sourcePath": "D:\\Final_SemProject\\Project Folder\\Enhancing Trust with Blockchain for Genuine Products\\contracts\\product.sol",
  "compiler": {
    "name": "solc",
    "version": "0.8.12+commit.f00d7308.Emscripten.clang"
  },
  "schemaVersion": "3.4.16",
  "updatedAt": "2024-06-02T15:23:19.088Z",
  "devdoc": {
    "kind": "dev",
    "methods": {},
    "version": 1
  },
  "userdoc": {
    "kind": "user",
    "methods": {},
    "version": 1
  }
}